{
  "contractName": "FileShare",
  "abi": [
    {
      "constant": false,
      "inputs": [
        {
          "internalType": "uint256",
          "name": "_goal",
          "type": "uint256"
        },
        {
          "internalType": "string",
          "name": "_fileLink",
          "type": "string"
        },
        {
          "internalType": "string",
          "name": "_title",
          "type": "string"
        },
        {
          "internalType": "string",
          "name": "_description",
          "type": "string"
        }
      ],
      "name": "storeFile",
      "outputs": [
        {
          "internalType": "uint256",
          "name": "",
          "type": "uint256"
        }
      ],
      "payable": false,
      "stateMutability": "nonpayable",
      "type": "function"
    },
    {
      "constant": true,
      "inputs": [
        {
          "internalType": "uint256",
          "name": "_index",
          "type": "uint256"
        }
      ],
      "name": "getFileInfo",
      "outputs": [
        {
          "internalType": "string",
          "name": "",
          "type": "string"
        }
      ],
      "payable": false,
      "stateMutability": "view",
      "type": "function"
    },
    {
      "constant": true,
      "inputs": [],
      "name": "getAllFilesInfo",
      "outputs": [
        {
          "internalType": "string",
          "name": "content",
          "type": "string"
        }
      ],
      "payable": false,
      "stateMutability": "view",
      "type": "function"
    },
    {
      "constant": false,
      "inputs": [
        {
          "internalType": "uint256",
          "name": "_index",
          "type": "uint256"
        }
      ],
      "name": "donate",
      "outputs": [
        {
          "internalType": "uint256",
          "name": "",
          "type": "uint256"
        }
      ],
      "payable": true,
      "stateMutability": "payable",
      "type": "function"
    },
    {
      "constant": false,
      "inputs": [
        {
          "internalType": "uint256",
          "name": "_index",
          "type": "uint256"
        }
      ],
      "name": "withdraw",
      "outputs": [
        {
          "internalType": "bool",
          "name": "",
          "type": "bool"
        }
      ],
      "payable": true,
      "stateMutability": "payable",
      "type": "function"
    },
    {
      "constant": true,
      "inputs": [
        {
          "internalType": "uint256",
          "name": "_index",
          "type": "uint256"
        }
      ],
      "name": "getAvailableFunds",
      "outputs": [
        {
          "internalType": "uint256",
          "name": "",
          "type": "uint256"
        }
      ],
      "payable": false,
      "stateMutability": "view",
      "type": "function"
    }
  ],
  "bytecode": "0x6080604052600380546001600160a01b0319163317905534801561002257600080fd5b50611622806100326000396000f3fe6080604052600436106100555760003560e01c80632e1a7d4d1461005a5780635d3373a61461008b5780636b9b0fa014610115578063c14eff97146102ef578063d7d5603514610319578063f14faf6f14610343575b600080fd5b6100776004803603602081101561007057600080fd5b5035610360565b604080519115158252519081900360200190f35b34801561009757600080fd5b506100a06104cf565b6040805160208082528351818301528351919283929083019185019080838360005b838110156100da5781810151838201526020016100c2565b50505050905090810190601f1680156101075780820380516001836020036101000a031916815260200191505b509250505060405180910390f35b34801561012157600080fd5b506102dd6004803603608081101561013857600080fd5b8135919081019060408101602082013564010000000081111561015a57600080fd5b82018360208201111561016c57600080fd5b8035906020019184600183028401116401000000008311171561018e57600080fd5b91908080601f01602080910402602001604051908101604052809392919081815260200183838082843760009201919091525092959493602081019350359150506401000000008111156101e157600080fd5b8201836020820111156101f357600080fd5b8035906020019184600183028401116401000000008311171561021557600080fd5b91908080601f016020809104026020016040519081016040528093929190818152602001838380828437600092019190915250929594936020810193503591505064010000000081111561026857600080fd5b82018360208201111561027a57600080fd5b8035906020019184600183028401116401000000008311171561029c57600080fd5b91908080601f016020809104026020016040519081016040528093929190818152602001838380828437600092019190915250929550610726945050505050565b60408051918252519081900360200190f35b3480156102fb57600080fd5b506102dd6004803603602081101561031257600080fd5b5035610872565b34801561032557600080fd5b506100a06004803603602081101561033c57600080fd5b503561099b565b6102dd6004803603602081101561035957600080fd5b5035610adc565b60008161036e600082610b8c565b15156001146103bc576040805162461bcd60e51b815260206004820152601560248201527424b232b73a34b334b2b9103737ba103337bab7321760591b604482015290519081900360640190fd5b826103c8600082610ba1565b1515600114610416576040805162461bcd60e51b8152602060048201526015602482015274273790333ab73239903a37903bb4ba34323930bb9760591b604482015290519081900360640190fd5b8361042360008233610bde565b1515600114610469576040805162461bcd60e51b815260206004820152600d60248201526c2ab730baba3437b934bd32b21760991b604482015290519081900360640190fd5b6000610476600087610c02565b50509650505050505050336001600160a01b03166108fc829081150290604051600060405180830381858888f193505050501580156104b9573d6000803e3d6000fd5b506104c5600087610e4e565b9695505050505050565b604080518082019091526002815261225b60f01b602082015260006104f381610e66565b90505b610501600082610e7b565b156106ac576000606080606060008061051b600088610c02565b5097509750509650965096509650508761056087841015610554576040518060600160405280602d81526020016115c1602d9139610556565b865b8887878787610e86565b60025489146105895760405180604001604052806002815260200161016160f51b81525061059a565b604051806020016040528060008152505b6040516020018084805190602001908083835b602083106105cc5780518252601f1990920191602091820191016105ad565b51815160209384036101000a600019018019909216911617905286519190930192860191508083835b602083106106145780518252601f1990920191602091820191016105f5565b51815160209384036101000a600019018019909216911617905285519190930192850191508083835b6020831061065c5780518252601f19909201916020918201910161063d565b6001836020036101000a038019825116818451168082178552505050505050905001935050505060405160208183030381529060405297505050505050506106a5600082611197565b90506104f6565b50806040516020018082805190602001908083835b602083106106e05780518252601f1990920191602091820191016106c1565b6001836020036101000a03801982511681845116808217855250505050505090500180612e9160f11b815250600201915050604051602081830303815290604052905090565b600084848484825160001415610783576040805162461bcd60e51b815260206004820152601a60248201527f5468652075726c206669656c642069732072657175697265642e000000000000604482015290519081900360640190fd5b81516107d6576040805162461bcd60e51b815260206004820152601c60248201527f546865207469746c65206669656c642069732072657175697265642e00000000604482015290519081900360640190fd5b80516108135760405162461bcd60e51b81526004018080602001828103825260228152602001806115746022913960400191505060405180910390fd5b600084116108525760405162461bcd60e51b815260040180806020018281038252603881526020018061153c6038913960400191505060405180910390fd5b61086160008a8a8a8a336111e0565b505060025498975050505050505050565b600081610880600082610b8c565b15156001146108ce576040805162461bcd60e51b815260206004820152601560248201527424b232b73a34b334b2b9103737ba103337bab7321760591b604482015290519081900360640190fd5b826108da600082610ba1565b1515600114610928576040805162461bcd60e51b8152602060048201526015602482015274273790333ab73239903a37903bb4ba34323930bb9760591b604482015290519081900360640190fd5b8361093560008233610bde565b151560011461097b576040805162461bcd60e51b815260206004820152600d60248201526c2ab730baba3437b934bd32b21760991b604482015290519081900360640190fd5b6000610988600087610c02565b50909d9c50505050505050505050505050565b6060816109a9600082610b8c565b15156001146109f7576040805162461bcd60e51b815260206004820152601560248201527424b232b73a34b334b2b9103737ba103337bab7321760591b604482015290519081900360640190fd5b60006060806060600080610a0c60008a610c02565b509750975050965096509650965050610a5086831015610a44576040518060600160405280602d81526020016115c1602d9139610a46565b855b8786868686610e86565b6040516020018080601160f91b81525060010182805190602001908083835b60208310610a8e5780518252601f199092019160209182019101610a6f565b6001836020036101000a03801982511681845116808217855250505050505090500180601160f91b815250600101915050604051602081830303815290604052975050505050505050919050565b60008160003411610b1e5760405162461bcd60e51b815260040180806020018281038252602b815260200180611596602b913960400191505060405180910390fd5b82610b2a600082610b8c565b1515600114610b78576040805162461bcd60e51b815260206004820152601560248201527424b232b73a34b334b2b9103737ba103337bab7321760591b604482015290519081900360640190fd5b610b846000853461132b565b949350505050565b60009081526020919091526040902054151590565b60008181526020839052604081206008015460ff1615156001148015610bd7575060008281526020849052604090206006015415155b9392505050565b600091825260209290925260409020600501546001600160a01b0391821691161490565b60008060608060606000806000808a6001018a81548110610c1f57fe5b60009182526020808320600292830201548084528e8252604093849020600180820154918501805487519281161561010002600019011695909504601f8101859004850282018501909652858152919d509b509290830182828015610cc55780601f10610c9a57610100808354040283529160200191610cc5565b820191906000526020600020905b815481529060010190602001808311610ca857829003601f168201915b50505060008c815260208f81526040918290206003018054835160026001831615610100026000190190921691909104601f8101849004840282018401909452838152959c509350909150830182828015610d615780601f10610d3657610100808354040283529160200191610d61565b820191906000526020600020905b815481529060010190602001808311610d4457829003601f168201915b50505060008c815260208f81526040918290206004018054835160026001831615610100026000190190921691909104601f8101849004840282018401909452838152959b509350909150830182828015610dfd5780601f10610dd257610100808354040283529160200191610dfd565b820191906000526020600020905b815481529060010190602001808311610de057829003601f168201915b50505060008c815260209e909e5250506040909b206005810154600682015460078301546008909301549b9e9a9d999c50979a98996001600160a01b039091169891965060ff909116945092505050565b60009081526020919091526040812060060155600190565b6000610e73826000611197565b90505b919050565b600191909101541190565b606086610e9287611385565b8686610e9d87611385565b610ea687611385565b60405160200180806c03d913334b632a634b735911d1609d1b815250600d0180601160f91b81525060010187805190602001908083835b60208310610efc5780518252601f199092019160209182019101610edd565b51815160209384036101000a6000190180199092169116179052601160f91b9190930181815269016101133b7b0b6111d160b51b6001820152600b8101919091528851600c90910192890191508083835b60208310610f6c5780518252601f199092019160209182019101610f4d565b51815160209384036101000a6000190180199092169116179052601160f91b919093018181526a01610113a34ba3632911d160ad1b6001820152600c8101919091528751600d90910192880191508083835b60208310610fdd5780518252601f199092019160209182019101610fbe565b51815160209384036101000a6000190180199092169116179052601160f91b919093018181527001610113232b9b1b934b83a34b7b7111d1607d1b600182015260128101919091528651601390910192870191508083835b602083106110545780518252601f199092019160209182019101611035565b51815160209384036101000a6000190180199092169116179052601160f91b919093018181526c01610113237b730ba32b2111d1609d1b6001820152600e8101919091528551600f90910192860191508083835b602083106110c75780518252601f1990920191602091820191016110a8565b51815160209384036101000a6000190180199092169116179052601160f91b919093018181527001610113230ba32a1b932b0ba32b2111d1607d1b600182015260128101919091528451601390910192850191508083835b6020831061113e5780518252601f19909201916020918201910161111f565b5181516020939093036101000a6000190180199091169216919091179052601160f91b920191825250607d60f81b600182015260408051808303601d19018152600290920190529e9d5050505050505050505050505050565b6000600182015b6001840154811080156111d357508360010181815481106111bb57fe5b600091825260209091206001600290920201015460ff165b15610bd75760010161119e565b600086600201546000141561120557600180880180549161120391908301611449565b505b600280880180546001908101808355600090815260208b815260408083209093018b90559254815220875161124193919091019188019061147a565b506002870154600090815260208881526040909120855161126a9260039092019187019061147a565b50600287015460009081526020888152604090912084516112939260049092019186019061147a565b5060028701805460009081526020899052604080822060050180546001600160a01b0319166001600160a01b03871617905591548152204260079091015560018088018054916112e591908301611449565b50600287015460008181526020899052604090208190556001880180548290811061130c57fe5b6000918252602082206002909102019190915590509695505050505050565b60008281526020849052604081206006810180548401908190556001909101541161136d576000838152602085905260409020600801805460ff191660011790555b50506000908152602091909152604090206006015490565b6060816113aa57506040805180820190915260018152600360fc1b6020820152610e76565b8160005b81156113c257600101600a820491506113ae565b6060816040519080825280601f01601f1916602001820160405280156113ef576020820181803883390190505b50859350905060001982015b831561144057600a840660300160f81b8282806001900393508151811061141e57fe5b60200101906001600160f81b031916908160001a905350600a840493506113fb565b50949350505050565b8154818355818111156114755760020281600202836000526020600020918201910161147591906114f8565b505050565b828054600181600116156101000203166002900490600052602060002090601f016020900481019282601f106114bb57805160ff19168380011785556114e8565b828001600101855582156114e8579182015b828111156114e85782518255916020019190600101906114cd565b506114f4929150611521565b5090565b61151e91905b808211156114f4576000815560018101805460ff191690556002016114fe565b90565b61151e91905b808211156114f4576000815560010161152756fe54686520676f616c206669656c6420697320726571756972656420616e642073686f756c642062652067726561746572207468616e20302e546865206465736372697074696f6e206669656c642069732072657175697265642e546865206d696e696d756d2076616c75652073686f756c642062652067726561746572207468616e20302e46696c652068696464656e20756e74696c20676f616c2069732072656163686564206173206d696e696d756d2ea265627a7a72315820602a88bc28b73f158543e67455efaace8b0913d6589751806cc3333b9fc02db464736f6c634300050d0032",
  "source": "pragma solidity ^0.5.11;\nimport './IterableMapping.sol';\nimport './Utils.sol';\n\n\ncontract FileShare {\n    IterableMapping.file filesData;\n    address owner = msg.sender;\n\n    modifier doesIndexExist(uint _index) {\n        require(\n            IterableMapping.contains(filesData, _index) == true,\n            'Identifier not found.'\n        );\n        _;\n    }\n\n    modifier required(uint _goal, string memory _fileLink, string memory _title, string memory _description) {\n        require (\n            bytes(_fileLink).length != 0,\n            'The url field is required.'\n        );\n        require (\n            bytes(_title).length != 0,\n            'The title field is required.'\n        );\n        require (\n            bytes(_description).length != 0,\n            'The description field is required.'\n        );\n        require (\n            _goal > 0,\n            'The goal field is required and should be greater than 0.'\n        );\n        _;\n    }\n\n    modifier donateRules(uint _index) {\n        require(\n            msg.value > 0,\n            'The minimum value should be greater than 0.'\n        );\n        _;\n    }\n\n    modifier withdrawRules(uint _index) {\n        require(\n            IterableMapping.hasFunds(filesData, _index) == true,\n            'No funds to withdraw.'\n        );\n        _;\n    }\n\n    modifier isFileOwner(uint _index) {\n        require(\n            IterableMapping.isFileOwner(filesData, _index, msg.sender) == true,\n            'Unauthorized.'\n        );\n        _;\n    }\n\n    function storeFile(\n        uint _goal,\n        string memory _fileLink,\n        string memory _title,\n        string memory _description\n    )\n        public\n        required(\n            _goal,\n            _fileLink,\n            _title,\n            _description\n        )\n        returns(uint)\n    {\n        IterableMapping.insert(filesData, _goal, _fileLink, _title, _description, msg.sender);\n        return filesData.size;\n    }\n\n    function getFileInfo(uint _index) public view doesIndexExist(_index) returns(string memory) {\n        (\n            , uint goal,\n            string memory fileLink,\n            string memory title,\n            string memory description,\n            ,\n            uint donated,\n            uint dateCreated,\n        ) = IterableMapping.get(filesData, _index);\n        return string(abi.encodePacked(\n            '\"',\n            Utils.getFileObject(donated >= goal ? fileLink : 'File hidden until goal is reached as minimum.', goal, title, description, donated, dateCreated),\n            '\"'\n        ));\n    }\n\n    function getAllFilesInfo() public view returns(string memory content) {\n        content = '\"[';\n        for (uint i = IterableMapping.firstIndex(filesData);\n        IterableMapping.isValid(filesData, i);\n        i = IterableMapping.nextIndex(filesData, i)) {\n            (\n                ,\n                uint goal,\n                string memory fileLink,\n                string memory title,\n                string memory description,\n                ,\n                uint donated,\n                uint dateCreated,\n            ) = IterableMapping.get(filesData, i);\n\n            content = string(abi.encodePacked(\n                content,\n                Utils.getFileObject(donated >= goal ? fileLink : 'File hidden until goal is reached as minimum.',\n                goal,\n                title,\n                description,\n                donated,\n                dateCreated),\n                (i == filesData.size) ? '' : ', '\n            ));\n        }\n        content = string(abi.encodePacked(content, ']\"'));\n    }\n\n    function donate(uint _index) public payable donateRules(_index) doesIndexExist(_index) returns(uint) {\n        return IterableMapping.donate(filesData, _index, msg.value);\n    }\n\n    function withdraw(uint _index) public payable\n    doesIndexExist(_index)\n    withdrawRules(_index)\n    isFileOwner(_index)\n    returns(bool) {\n        (\n            ,\n            ,\n            ,\n            ,\n            ,\n            ,\n            uint donated,\n            ,\n        ) = IterableMapping.get(filesData, _index);\n        msg.sender.transfer(donated);\n        return IterableMapping.resetDonated(filesData, _index);\n    }\n    function getAvailableFunds(uint _index) public view\n    doesIndexExist(_index)\n    withdrawRules(_index)\n    isFileOwner(_index)\n    returns (uint) {\n        (\n            ,\n            ,\n            ,\n            ,\n            ,\n            ,\n            uint donated,\n            ,\n        ) = IterableMapping.get(filesData, _index);\n        return donated;\n    }\n}",
  "sourcePath": "/Volumes/Data/Projects/Unlock-dApp/contracts/FileShare.sol",
  "compiler": {
    "name": "solc",
    "version": "0.5.13+commit.5b0b510c.Emscripten.clang"
  },
  "schemaVersion": "3.0.19",
  "updatedAt": "2019-12-03T17:27:12.091Z",
  "networkType": "ethereum",
  "devdoc": {
    "methods": {}
  },
  "userdoc": {
    "methods": {}
  }
}